{
  "_format": "hh-sol-artifact-1",
  "contractName": "NFTMarketplace",
  "sourceName": "contracts/NFTMarketplace.sol",
  "abi": [
    {
      "inputs": [],
      "stateMutability": "nonpayable",
      "type": "constructor"
    },
    {
      "inputs": [],
      "name": "NotItemOwner",
      "type": "error"
    },
    {
      "inputs": [],
      "name": "PleaseSubmitAskingPrice",
      "type": "error"
    },
    {
      "inputs": [],
      "name": "PriceMustBeEqualToListingPrice",
      "type": "error"
    },
    {
      "inputs": [],
      "name": "PriceMustBeGreaterThanZero",
      "type": "error"
    },
    {
      "anonymous": false,
      "inputs": [
        {
          "indexed": true,
          "internalType": "address",
          "name": "owner",
          "type": "address"
        },
        {
          "indexed": true,
          "internalType": "address",
          "name": "approved",
          "type": "address"
        },
        {
          "indexed": true,
          "internalType": "uint256",
          "name": "tokenId",
          "type": "uint256"
        }
      ],
      "name": "Approval",
      "type": "event"
    },
    {
      "anonymous": false,
      "inputs": [
        {
          "indexed": true,
          "internalType": "address",
          "name": "owner",
          "type": "address"
        },
        {
          "indexed": true,
          "internalType": "address",
          "name": "operator",
          "type": "address"
        },
        {
          "indexed": false,
          "internalType": "bool",
          "name": "approved",
          "type": "bool"
        }
      ],
      "name": "ApprovalForAll",
      "type": "event"
    },
    {
      "anonymous": false,
      "inputs": [
        {
          "indexed": false,
          "internalType": "uint256",
          "name": "_fromTokenId",
          "type": "uint256"
        },
        {
          "indexed": false,
          "internalType": "uint256",
          "name": "_toTokenId",
          "type": "uint256"
        }
      ],
      "name": "BatchMetadataUpdate",
      "type": "event"
    },
    {
      "anonymous": false,
      "inputs": [
        {
          "indexed": true,
          "internalType": "uint256",
          "name": "tokenId",
          "type": "uint256"
        },
        {
          "indexed": false,
          "internalType": "address",
          "name": "seller",
          "type": "address"
        },
        {
          "indexed": false,
          "internalType": "address",
          "name": "owner",
          "type": "address"
        },
        {
          "indexed": false,
          "internalType": "uint256",
          "name": "price",
          "type": "uint256"
        },
        {
          "indexed": false,
          "internalType": "bool",
          "name": "sold",
          "type": "bool"
        }
      ],
      "name": "MarketItemCreated",
      "type": "event"
    },
    {
      "anonymous": false,
      "inputs": [
        {
          "indexed": false,
          "internalType": "uint256",
          "name": "_tokenId",
          "type": "uint256"
        }
      ],
      "name": "MetadataUpdate",
      "type": "event"
    },
    {
      "anonymous": false,
      "inputs": [
        {
          "indexed": true,
          "internalType": "address",
          "name": "from",
          "type": "address"
        },
        {
          "indexed": true,
          "internalType": "address",
          "name": "to",
          "type": "address"
        },
        {
          "indexed": true,
          "internalType": "uint256",
          "name": "tokenId",
          "type": "uint256"
        }
      ],
      "name": "Transfer",
      "type": "event"
    },
    {
      "inputs": [
        {
          "internalType": "address",
          "name": "to",
          "type": "address"
        },
        {
          "internalType": "uint256",
          "name": "tokenId",
          "type": "uint256"
        }
      ],
      "name": "approve",
      "outputs": [],
      "stateMutability": "nonpayable",
      "type": "function"
    },
    {
      "inputs": [
        {
          "internalType": "address",
          "name": "owner",
          "type": "address"
        }
      ],
      "name": "balanceOf",
      "outputs": [
        {
          "internalType": "uint256",
          "name": "",
          "type": "uint256"
        }
      ],
      "stateMutability": "view",
      "type": "function"
    },
    {
      "inputs": [
        {
          "internalType": "uint256",
          "name": "tokenId",
          "type": "uint256"
        }
      ],
      "name": "createMarketSale",
      "outputs": [],
      "stateMutability": "payable",
      "type": "function"
    },
    {
      "inputs": [
        {
          "internalType": "string",
          "name": "tokenURI",
          "type": "string"
        },
        {
          "internalType": "uint256",
          "name": "price",
          "type": "uint256"
        }
      ],
      "name": "createToken",
      "outputs": [
        {
          "internalType": "uint256",
          "name": "",
          "type": "uint256"
        }
      ],
      "stateMutability": "payable",
      "type": "function"
    },
    {
      "inputs": [],
      "name": "fetchItemsListed",
      "outputs": [
        {
          "components": [
            {
              "internalType": "uint256",
              "name": "tokenId",
              "type": "uint256"
            },
            {
              "internalType": "address payable",
              "name": "seller",
              "type": "address"
            },
            {
              "internalType": "address payable",
              "name": "owner",
              "type": "address"
            },
            {
              "internalType": "uint256",
              "name": "price",
              "type": "uint256"
            },
            {
              "internalType": "bool",
              "name": "sold",
              "type": "bool"
            }
          ],
          "internalType": "struct NFTMarketplace.MarketItem[]",
          "name": "",
          "type": "tuple[]"
        }
      ],
      "stateMutability": "view",
      "type": "function"
    },
    {
      "inputs": [],
      "name": "fetchMarketItems",
      "outputs": [
        {
          "components": [
            {
              "internalType": "uint256",
              "name": "tokenId",
              "type": "uint256"
            },
            {
              "internalType": "address payable",
              "name": "seller",
              "type": "address"
            },
            {
              "internalType": "address payable",
              "name": "owner",
              "type": "address"
            },
            {
              "internalType": "uint256",
              "name": "price",
              "type": "uint256"
            },
            {
              "internalType": "bool",
              "name": "sold",
              "type": "bool"
            }
          ],
          "internalType": "struct NFTMarketplace.MarketItem[]",
          "name": "",
          "type": "tuple[]"
        }
      ],
      "stateMutability": "view",
      "type": "function"
    },
    {
      "inputs": [],
      "name": "fetchMyNFTs",
      "outputs": [
        {
          "components": [
            {
              "internalType": "uint256",
              "name": "tokenId",
              "type": "uint256"
            },
            {
              "internalType": "address payable",
              "name": "seller",
              "type": "address"
            },
            {
              "internalType": "address payable",
              "name": "owner",
              "type": "address"
            },
            {
              "internalType": "uint256",
              "name": "price",
              "type": "uint256"
            },
            {
              "internalType": "bool",
              "name": "sold",
              "type": "bool"
            }
          ],
          "internalType": "struct NFTMarketplace.MarketItem[]",
          "name": "",
          "type": "tuple[]"
        }
      ],
      "stateMutability": "view",
      "type": "function"
    },
    {
      "inputs": [
        {
          "internalType": "uint256",
          "name": "tokenId",
          "type": "uint256"
        }
      ],
      "name": "getApproved",
      "outputs": [
        {
          "internalType": "address",
          "name": "",
          "type": "address"
        }
      ],
      "stateMutability": "view",
      "type": "function"
    },
    {
      "inputs": [],
      "name": "getListingPrice",
      "outputs": [
        {
          "internalType": "uint256",
          "name": "",
          "type": "uint256"
        }
      ],
      "stateMutability": "view",
      "type": "function"
    },
    {
      "inputs": [
        {
          "internalType": "address",
          "name": "owner",
          "type": "address"
        },
        {
          "internalType": "address",
          "name": "operator",
          "type": "address"
        }
      ],
      "name": "isApprovedForAll",
      "outputs": [
        {
          "internalType": "bool",
          "name": "",
          "type": "bool"
        }
      ],
      "stateMutability": "view",
      "type": "function"
    },
    {
      "inputs": [],
      "name": "listingPrice",
      "outputs": [
        {
          "internalType": "uint256",
          "name": "",
          "type": "uint256"
        }
      ],
      "stateMutability": "view",
      "type": "function"
    },
    {
      "inputs": [],
      "name": "name",
      "outputs": [
        {
          "internalType": "string",
          "name": "",
          "type": "string"
        }
      ],
      "stateMutability": "view",
      "type": "function"
    },
    {
      "inputs": [],
      "name": "owner",
      "outputs": [
        {
          "internalType": "address payable",
          "name": "",
          "type": "address"
        }
      ],
      "stateMutability": "view",
      "type": "function"
    },
    {
      "inputs": [
        {
          "internalType": "uint256",
          "name": "tokenId",
          "type": "uint256"
        }
      ],
      "name": "ownerOf",
      "outputs": [
        {
          "internalType": "address",
          "name": "",
          "type": "address"
        }
      ],
      "stateMutability": "view",
      "type": "function"
    },
    {
      "inputs": [
        {
          "internalType": "address",
          "name": "from",
          "type": "address"
        },
        {
          "internalType": "address",
          "name": "to",
          "type": "address"
        },
        {
          "internalType": "uint256",
          "name": "tokenId",
          "type": "uint256"
        }
      ],
      "name": "safeTransferFrom",
      "outputs": [],
      "stateMutability": "nonpayable",
      "type": "function"
    },
    {
      "inputs": [
        {
          "internalType": "address",
          "name": "from",
          "type": "address"
        },
        {
          "internalType": "address",
          "name": "to",
          "type": "address"
        },
        {
          "internalType": "uint256",
          "name": "tokenId",
          "type": "uint256"
        },
        {
          "internalType": "bytes",
          "name": "data",
          "type": "bytes"
        }
      ],
      "name": "safeTransferFrom",
      "outputs": [],
      "stateMutability": "nonpayable",
      "type": "function"
    },
    {
      "inputs": [
        {
          "internalType": "address",
          "name": "operator",
          "type": "address"
        },
        {
          "internalType": "bool",
          "name": "approved",
          "type": "bool"
        }
      ],
      "name": "setApprovalForAll",
      "outputs": [],
      "stateMutability": "nonpayable",
      "type": "function"
    },
    {
      "inputs": [
        {
          "internalType": "bytes4",
          "name": "interfaceId",
          "type": "bytes4"
        }
      ],
      "name": "supportsInterface",
      "outputs": [
        {
          "internalType": "bool",
          "name": "",
          "type": "bool"
        }
      ],
      "stateMutability": "view",
      "type": "function"
    },
    {
      "inputs": [],
      "name": "symbol",
      "outputs": [
        {
          "internalType": "string",
          "name": "",
          "type": "string"
        }
      ],
      "stateMutability": "view",
      "type": "function"
    },
    {
      "inputs": [
        {
          "internalType": "uint256",
          "name": "tokenId",
          "type": "uint256"
        }
      ],
      "name": "tokenURI",
      "outputs": [
        {
          "internalType": "string",
          "name": "",
          "type": "string"
        }
      ],
      "stateMutability": "view",
      "type": "function"
    },
    {
      "inputs": [
        {
          "internalType": "address",
          "name": "from",
          "type": "address"
        },
        {
          "internalType": "address",
          "name": "to",
          "type": "address"
        },
        {
          "internalType": "uint256",
          "name": "tokenId",
          "type": "uint256"
        }
      ],
      "name": "transferFrom",
      "outputs": [],
      "stateMutability": "nonpayable",
      "type": "function"
    },
    {
      "inputs": [
        {
          "internalType": "uint256",
          "name": "_listingPrice",
          "type": "uint256"
        }
      ],
      "name": "updateListingPrice",
      "outputs": [],
      "stateMutability": "payable",
      "type": "function"
    },
    {
      "inputs": [
        {
          "internalType": "uint256",
          "name": "tokenId",
          "type": "uint256"
        },
        {
          "internalType": "uint256",
          "name": "price",
          "type": "uint256"
        }
      ],
      "name": "resellToken",
      "outputs": [],
      "stateMutability": "payable",
      "type": "function"
    },
    {
      "inputs": [
        {
          "internalType": "uint256",
          "name": "tokenId",
          "type": "uint256"
        }
      ],
      "name": "cancelListing",
      "outputs": [],
      "stateMutability": "nonpayable",
      "type": "function"
    }
  ],
  "bytecode": "0x60806040526658d15e17628000600a553480156200001c57600080fd5b506040518060400160405280601481526020017f53434149204e4654204d61726b6574706c6163650000000000000000000000008152506040518060400160405280600481526020017f534e46540000000000000000000000000000000000000000000000000000000081525081600090816200009a919062000378565b508060019081620000ac919062000378565b505050600160078190555033600b60006101000a81548173ffffffffffffffffffffffffffffffffffffffff021916908373ffffffffffffffffffffffffffffffffffffffff1602179055506200045f565b600081519050919050565b7f4e487b7100000000000000000000000000000000000000000000000000000000600052604160045260246000fd5b7f4e487b7100000000000000000000000000000000000000000000000000000000600052602260045260246000fd5b600060028204905060018216806200018057607f821691505b60208210810362000196576200019562000138565b5b50919050565b60008190508160005260206000209050919050565b60006020601f8301049050919050565b600082821b905092915050565b600060088302620002007fffffffffffffffffffffffffffffffffffffffffffffffffffffffffffffffff82620001c1565b6200020c8683620001c1565b95508019841693508086168417925050509392505050565b6000819050919050565b6000819050919050565b600062000259620002536200024d8462000224565b6200022e565b62000224565b9050919050565b6000819050919050565b620002758362000238565b6200028d620002848262000260565b848454620001ce565b825550505050565b600090565b620002a462000295565b620002b18184846200026a565b505050565b5b81811015620002d957620002cd6000826200029a565b600181019050620002b7565b5050565b601f8211156200032857620002f2816200019c565b620002fd84620001b1565b810160208510156200030d578190505b620003256200031c85620001b1565b830182620002b6565b50505b505050565b600082821c905092915050565b60006200034d600019846008026200032d565b1980831691505092915050565b60006200036883836200033a565b9150826002028217905092915050565b6200038382620000fe565b67ffffffffffffffff8111156200039f576200039e62000109565b5b620003ab825462000167565b620003b8828285620002dd565b600060209050601f831160018114620003f05760008415620003db578287015190505b620003e785826200035a565b86555062000457565b601f19841662000400866200019c565b60005b828110156200042a5784890151825560018201915060208501945060208101905062000403565b868310156200044a578489015162000446601f8916826200033a565b8355505b6001600288020188555050505b505050505050565b613e1c806200046f6000396000f3fe6080604052600436106101355760003560e01c806370a08231116100ab578063ae677aa31161006f578063ae677aa31461042f578063b88d4fde1461044b578063be9af53614610474578063c78f19f914610490578063c87b56dd146104bb578063e985e9c5146104f857610135565b806370a082311461034357806372b3b620146103805780638da5cb5b146103b057806395d89b41146103db578063a22cb4651461040657610135565b806312e85585116100fd57806312e8558514610233578063202e37401461025e57806323b872dd1461028957806342842e0e146102b257806345f8fa80146102db5780636352211e1461030657610135565b806301ffc9a71461013a57806306fdde0314610177578063081812fc146101a2578063095ea7b3146101df5780630f08efe014610208575b600080fd5b34801561014657600080fd5b50610161600480360381019061015c91906129aa565b610535565b60405161016e91906129f2565b60405180910390f35b34801561018357600080fd5b5061018c610596565b6040516101999190612a9d565b60405180910390f35b3480156101ae57600080fd5b506101c960048036038101906101c49190612af5565b610628565b6040516101d69190612b63565b60405180910390f35b3480156101eb57600080fd5b5061020660048036038101906102019190612baa565b61066e565b005b34801561021457600080fd5b5061021d610785565b60405161022a9190612d40565b60405180910390f35b34801561023f57600080fd5b506102486109d2565b6040516102559190612d71565b60405180910390f35b34801561026a57600080fd5b506102736109dc565b6040516102809190612d40565b60405180910390f35b34801561029557600080fd5b506102b060048036038101906102ab9190612d8c565b610cb5565b005b3480156102be57600080fd5b506102d960048036038101906102d49190612d8c565b610d15565b005b3480156102e757600080fd5b506102f0610d35565b6040516102fd9190612d40565b60405180910390f35b34801561031257600080fd5b5061032d60048036038101906103289190612af5565b61100e565b60405161033a9190612b63565b60405180910390f35b34801561034f57600080fd5b5061036a60048036038101906103659190612ddf565b611094565b6040516103779190612d71565b60405180910390f35b61039a60048036038101906103959190612f41565b61114b565b6040516103a79190612d71565b60405180910390f35b3480156103bc57600080fd5b506103c5611194565b6040516103d29190612fac565b60405180910390f35b3480156103e757600080fd5b506103f06111ba565b6040516103fd9190612a9d565b60405180910390f35b34801561041257600080fd5b5061042d60048036038101906104289190612ff3565b61124c565b005b61044960048036038101906104449190612af5565b611262565b005b34801561045757600080fd5b50610472600480360381019061046d91906130d4565b6112f3565b005b61048e60048036038101906104899190612af5565b611355565b005b34801561049c57600080fd5b506104a56115a8565b6040516104b29190612d71565b60405180910390f35b3480156104c757600080fd5b506104e260048036038101906104dd9190612af5565b6115ae565b6040516104ef9190612a9d565b60405180910390f35b34801561050457600080fd5b5061051f600480360381019061051a9190613157565b6116c0565b60405161052c91906129f2565b60405180910390f35b6000634906490660e01b7bffffffffffffffffffffffffffffffffffffffffffffffffffffffff1916827bffffffffffffffffffffffffffffffffffffffffffffffffffffffff1916148061058f575061058e82611754565b5b9050919050565b6060600080546105a5906131c6565b80601f01602080910402602001604051908101604052809291908181526020018280546105d1906131c6565b801561061e5780601f106105f35761010080835404028352916020019161061e565b820191906000526020600020905b81548152906001019060200180831161060157829003601f168201915b5050505050905090565b600061063382611836565b6004600083815260200190815260200160002060009054906101000a900473ffffffffffffffffffffffffffffffffffffffff169050919050565b60006106798261100e565b90508073ffffffffffffffffffffffffffffffffffffffff168373ffffffffffffffffffffffffffffffffffffffff16036106e9576040517f08c379a00000000000000000000000000000000000000000000000000000000081526004016106e090613269565b60405180910390fd5b8073ffffffffffffffffffffffffffffffffffffffff16610708611881565b73ffffffffffffffffffffffffffffffffffffffff161480610737575061073681610731611881565b6116c0565b5b610776576040517f08c379a000000000000000000000000000000000000000000000000000000000815260040161076d906132fb565b60405180910390fd5b6107808383611889565b505050565b60606000600854905060006009546008546107a0919061334a565b90506000808267ffffffffffffffff8111156107bf576107be612e16565b5b6040519080825280602002602001820160405280156107f857816020015b6107e56128e1565b8152602001906001900390816107dd5790505b50905060005b848110156109c7573073ffffffffffffffffffffffffffffffffffffffff16600c600060018461082e919061337e565b815260200190815260200160002060020160009054906101000a900473ffffffffffffffffffffffffffffffffffffffff1673ffffffffffffffffffffffffffffffffffffffff16036109ba57600060018261088a919061337e565b90506000600c60008381526020019081526020016000209050806040518060a0016040529081600082015481526020016001820160009054906101000a900473ffffffffffffffffffffffffffffffffffffffff1673ffffffffffffffffffffffffffffffffffffffff1673ffffffffffffffffffffffffffffffffffffffff1681526020016002820160009054906101000a900473ffffffffffffffffffffffffffffffffffffffff1673ffffffffffffffffffffffffffffffffffffffff1673ffffffffffffffffffffffffffffffffffffffff168152602001600382015481526020016004820160009054906101000a900460ff16151515158152505084868151811061099d5761099c6133b2565b5b60200260200101819052506001856109b5919061337e565b945050505b80806001019150506107fe565b508094505050505090565b6000600a54905090565b60606000600854905060008060005b83811015610a85573373ffffffffffffffffffffffffffffffffffffffff16600c6000600184610a1b919061337e565b815260200190815260200160002060020160009054906101000a900473ffffffffffffffffffffffffffffffffffffffff1673ffffffffffffffffffffffffffffffffffffffff1603610a7857600183610a75919061337e565b92505b80806001019150506109eb565b5060008267ffffffffffffffff811115610aa257610aa1612e16565b5b604051908082528060200260200182016040528015610adb57816020015b610ac86128e1565b815260200190600190039081610ac05790505b50905060005b84811015610caa573373ffffffffffffffffffffffffffffffffffffffff16600c6000600184610b11919061337e565b815260200190815260200160002060020160009054906101000a900473ffffffffffffffffffffffffffffffffffffffff1673ffffffffffffffffffffffffffffffffffffffff1603610c9d576000600182610b6d919061337e565b90506000600c60008381526020019081526020016000209050806040518060a0016040529081600082015481526020016001820160009054906101000a900473ffffffffffffffffffffffffffffffffffffffff1673ffffffffffffffffffffffffffffffffffffffff1673ffffffffffffffffffffffffffffffffffffffff1681526020016002820160009054906101000a900473ffffffffffffffffffffffffffffffffffffffff1673ffffffffffffffffffffffffffffffffffffffff1673ffffffffffffffffffffffffffffffffffffffff168152602001600382015481526020016004820160009054906101000a900460ff161515151581525050848681518110610c8057610c7f6133b2565b5b6020026020010181905250600185610c98919061337e565b945050505b8080600101915050610ae1565b508094505050505090565b610cc6610cc0611881565b82611942565b610d05576040517f08c379a0000000000000000000000000000000000000000000000000000000008152600401610cfc90613453565b60405180910390fd5b610d108383836119d7565b505050565b610d30838383604051806020016040528060008152506112f3565b505050565b60606000600854905060008060005b83811015610dde573373ffffffffffffffffffffffffffffffffffffffff16600c6000600184610d74919061337e565b815260200190815260200160002060010160009054906101000a900473ffffffffffffffffffffffffffffffffffffffff1673ffffffffffffffffffffffffffffffffffffffff1603610dd157600183610dce919061337e565b92505b8080600101915050610d44565b5060008267ffffffffffffffff811115610dfb57610dfa612e16565b5b604051908082528060200260200182016040528015610e3457816020015b610e216128e1565b815260200190600190039081610e195790505b50905060005b84811015611003573373ffffffffffffffffffffffffffffffffffffffff16600c6000600184610e6a919061337e565b815260200190815260200160002060010160009054906101000a900473ffffffffffffffffffffffffffffffffffffffff1673ffffffffffffffffffffffffffffffffffffffff1603610ff6576000600182610ec6919061337e565b90506000600c60008381526020019081526020016000209050806040518060a0016040529081600082015481526020016001820160009054906101000a900473ffffffffffffffffffffffffffffffffffffffff1673ffffffffffffffffffffffffffffffffffffffff1673ffffffffffffffffffffffffffffffffffffffff1681526020016002820160009054906101000a900473ffffffffffffffffffffffffffffffffffffffff1673ffffffffffffffffffffffffffffffffffffffff1673ffffffffffffffffffffffffffffffffffffffff168152602001600382015481526020016004820160009054906101000a900460ff161515151581525050848681518110610fd957610fd86133b2565b5b6020026020010181905250600185610ff1919061337e565b945050505b8080600101915050610e3a565b508094505050505090565b60008061101a83611cd0565b9050600073ffffffffffffffffffffffffffffffffffffffff168173ffffffffffffffffffffffffffffffffffffffff160361108b576040517f08c379a0000000000000000000000000000000000000000000000000000000008152600401611082906134bf565b60405180910390fd5b80915050919050565b60008073ffffffffffffffffffffffffffffffffffffffff168273ffffffffffffffffffffffffffffffffffffffff1603611104576040517f08c379a00000000000000000000000000000000000000000000000000000000081526004016110fb90613551565b60405180910390fd5b600360008373ffffffffffffffffffffffffffffffffffffffff1673ffffffffffffffffffffffffffffffffffffffff168152602001908152602001600020549050919050565b60006008600081548092919061116090613571565b9190505550600060085490506111763382611d0d565b6111808185611f2a565b61118a8184611fce565b8091505092915050565b600b60009054906101000a900473ffffffffffffffffffffffffffffffffffffffff1681565b6060600180546111c9906131c6565b80601f01602080910402602001604051908101604052809291908181526020018280546111f5906131c6565b80156112425780601f1061121757610100808354040283529160200191611242565b820191906000526020600020905b81548152906001019060200180831161122557829003601f168201915b5050505050905090565b61125e611257611881565b83836121bf565b5050565b3373ffffffffffffffffffffffffffffffffffffffff16600b60009054906101000a900473ffffffffffffffffffffffffffffffffffffffff1673ffffffffffffffffffffffffffffffffffffffff16146112e9576040517f3aa1064300000000000000000000000000000000000000000000000000000000815260040160405180910390fd5b80600a8190555050565b6113046112fe611881565b83611942565b611343576040517f08c379a000000000000000000000000000000000000000000000000000000000815260040161133a90613453565b60405180910390fd5b61134f8484848461232b565b50505050565b61135d612387565b6000600c60008381526020019081526020016000206003015490506000600c600084815260200190815260200160002060010160009054906101000a900473ffffffffffffffffffffffffffffffffffffffff1690508134146113ec576040517f969cbd8600000000000000000000000000000000000000000000000000000000815260040160405180910390fd5b33600c600085815260200190815260200160002060020160006101000a81548173ffffffffffffffffffffffffffffffffffffffff021916908373ffffffffffffffffffffffffffffffffffffffff1602179055506001600c600085815260200190815260200160002060040160006101000a81548160ff0219169083151502179055506000600c600085815260200190815260200160002060010160006101000a81548173ffffffffffffffffffffffffffffffffffffffff021916908373ffffffffffffffffffffffffffffffffffffffff160217905550600960008154809291906114d990613571565b91905055506114e93033856119d7565b600b60009054906101000a900473ffffffffffffffffffffffffffffffffffffffff1673ffffffffffffffffffffffffffffffffffffffff166108fc600a549081150290604051600060405180830381858888f19350505050158015611553573d6000803e3d6000fd5b508073ffffffffffffffffffffffffffffffffffffffff166108fc349081150290604051600060405180830381858888f1935050505015801561159a573d6000803e3d6000fd5b5050506115a56123d6565b50565b600a5481565b60606115b982611836565b60006006600084815260200190815260200160002080546115d9906131c6565b80601f0160208091040260200160405190810160405280929190818152602001828054611605906131c6565b80156116525780601f1061162757610100808354040283529160200191611652565b820191906000526020600020905b81548152906001019060200180831161163557829003601f168201915b5050505050905060006116636123e0565b905060008151036116785781925050506116bb565b6000825111156116ad5780826040516020016116959291906135f5565b604051602081830303815290604052925050506116bb565b6116b6846123f7565b925050505b919050565b6000600560008473ffffffffffffffffffffffffffffffffffffffff1673ffffffffffffffffffffffffffffffffffffffff16815260200190815260200160002060008373ffffffffffffffffffffffffffffffffffffffff1673ffffffffffffffffffffffffffffffffffffffff16815260200190815260200160002060009054906101000a900460ff16905092915050565b60007f80ac58cd000000000000000000000000000000000000000000000000000000007bffffffffffffffffffffffffffffffffffffffffffffffffffffffff1916827bffffffffffffffffffffffffffffffffffffffffffffffffffffffff1916148061181f57507f5b5e139f000000000000000000000000000000000000000000000000000000007bffffffffffffffffffffffffffffffffffffffffffffffffffffffff1916827bffffffffffffffffffffffffffffffffffffffffffffffffffffffff1916145b8061182f575061182e8261245f565b5b9050919050565b61183f816124c9565b61187e576040517f08c379a0000000000000000000000000000000000000000000000000000000008152600401611875906134bf565b60405180910390fd5b50565b600033905090565b816004600083815260200190815260200160002060006101000a81548173ffffffffffffffffffffffffffffffffffffffff021916908373ffffffffffffffffffffffffffffffffffffffff160217905550808273ffffffffffffffffffffffffffffffffffffffff166118fc8361100e565b73ffffffffffffffffffffffffffffffffffffffff167f8c5be1e5ebec7d5bd14f71427d1e84f3dd0314c0f7b2291e5b200ac8c7c3b92560405160405180910390a45050565b60008061194e8361100e565b90508073ffffffffffffffffffffffffffffffffffffffff168473ffffffffffffffffffffffffffffffffffffffff161480611990575061198f81856116c0565b5b806119ce57508373ffffffffffffffffffffffffffffffffffffffff166119b684610628565b73ffffffffffffffffffffffffffffffffffffffff16145b91505092915050565b8273ffffffffffffffffffffffffffffffffffffffff166119f78261100e565b73ffffffffffffffffffffffffffffffffffffffff1614611a4d576040517f08c379a0000000000000000000000000000000000000000000000000000000008152600401611a449061368b565b60405180910390fd5b600073ffffffffffffffffffffffffffffffffffffffff168273ffffffffffffffffffffffffffffffffffffffff1603611abc576040517f08c379a0000000000000000000000000000000000000000000000000000000008152600401611ab39061371d565b60405180910390fd5b611ac9838383600161250a565b8273ffffffffffffffffffffffffffffffffffffffff16611ae98261100e565b73ffffffffffffffffffffffffffffffffffffffff1614611b3f576040517f08c379a0000000000000000000000000000000000000000000000000000000008152600401611b369061368b565b60405180910390fd5b6004600082815260200190815260200160002060006101000a81549073ffffffffffffffffffffffffffffffffffffffff02191690556001600360008573ffffffffffffffffffffffffffffffffffffffff1673ffffffffffffffffffffffffffffffffffffffff168152602001908152602001600020600082825403925050819055506001600360008473ffffffffffffffffffffffffffffffffffffffff1673ffffffffffffffffffffffffffffffffffffffff16815260200190815260200160002060008282540192505081905550816002600083815260200190815260200160002060006101000a81548173ffffffffffffffffffffffffffffffffffffffff021916908373ffffffffffffffffffffffffffffffffffffffff160217905550808273ffffffffffffffffffffffffffffffffffffffff168473ffffffffffffffffffffffffffffffffffffffff167fddf252ad1be2c89b69c2b068fc378daa952ba7f163c4a11628f55a4df523b3ef60405160405180910390a4611ccb8383836001612510565b505050565b60006002600083815260200190815260200160002060009054906101000a900473ffffffffffffffffffffffffffffffffffffffff169050919050565b600073ffffffffffffffffffffffffffffffffffffffff168273ffffffffffffffffffffffffffffffffffffffff1603611d7c576040517f08c379a0000000000000000000000000000000000000000000000000000000008152600401611d7390613789565b60405180910390fd5b611d85816124c9565b15611dc5576040517f08c379a0000000000000000000000000000000000000000000000000000000008152600401611dbc906137f5565b60405180910390fd5b611dd360008383600161250a565b611ddc816124c9565b15611e1c576040517f08c379a0000000000000000000000000000000000000000000000000000000008152600401611e13906137f5565b60405180910390fd5b6001600360008473ffffffffffffffffffffffffffffffffffffffff1673ffffffffffffffffffffffffffffffffffffffff16815260200190815260200160002060008282540192505081905550816002600083815260200190815260200160002060006101000a81548173ffffffffffffffffffffffffffffffffffffffff021916908373ffffffffffffffffffffffffffffffffffffffff160217905550808273ffffffffffffffffffffffffffffffffffffffff16600073ffffffffffffffffffffffffffffffffffffffff167fddf252ad1be2c89b69c2b068fc378daa952ba7f163c4a11628f55a4df523b3ef60405160405180910390a4611f26600083836001612510565b5050565b611f33826124c9565b611f72576040517f08c379a0000000000000000000000000000000000000000000000000000000008152600401611f6990613887565b60405180910390fd5b80600660008481526020019081526020016000209081611f929190613a53565b507ff8e1a15aba9398e019f0b49df1a4fde98ee17ae345cb5f6b5e2c27f5033e8ce782604051611fc29190612d71565b60405180910390a15050565b60008111612008576040517f23a3620900000000000000000000000000000000000000000000000000000000815260040160405180910390fd5b600a543414612043576040517f545330fb00000000000000000000000000000000000000000000000000000000815260040160405180910390fd5b6040518060a001604052808381526020013373ffffffffffffffffffffffffffffffffffffffff1681526020013073ffffffffffffffffffffffffffffffffffffffff16815260200182815260200160001515815250600c60008481526020019081526020016000206000820151816000015560208201518160010160006101000a81548173ffffffffffffffffffffffffffffffffffffffff021916908373ffffffffffffffffffffffffffffffffffffffff16021790555060408201518160020160006101000a81548173ffffffffffffffffffffffffffffffffffffffff021916908373ffffffffffffffffffffffffffffffffffffffff1602179055506060820151816003015560808201518160040160006101000a81548160ff02191690831515021790555090505061217c3330846119d7565b817fb640004f1d14576d0c209e240cad0410e0d8c0c33a09375861fbadae2588a98d33308460006040516121b39493929190613b25565b60405180910390a25050565b8173ffffffffffffffffffffffffffffffffffffffff168373ffffffffffffffffffffffffffffffffffffffff160361222d576040517f08c379a000000000000000000000000000000000000000000000000000000000815260040161222490613bb6565b60405180910390fd5b80600560008573ffffffffffffffffffffffffffffffffffffffff1673ffffffffffffffffffffffffffffffffffffffff16815260200190815260200160002060008473ffffffffffffffffffffffffffffffffffffffff1673ffffffffffffffffffffffffffffffffffffffff16815260200190815260200160002060006101000a81548160ff0219169083151502179055508173ffffffffffffffffffffffffffffffffffffffff168373ffffffffffffffffffffffffffffffffffffffff167f17307eab39ab6107e8899845ad3d59bd9653f200f220920489ca2b5937696c318360405161231e91906129f2565b60405180910390a3505050565b6123368484846119d7565b61234284848484612516565b612381576040517f08c379a000000000000000000000000000000000000000000000000000000000815260040161237890613c48565b60405180910390fd5b50505050565b6002600754036123cc576040517f08c379a00000000000000000000000000000000000000000000000000000000081526004016123c390613cb4565b60405180910390fd5b6002600781905550565b6001600781905550565b606060405180602001604052806000815250905090565b606061240282611836565b600061240c6123e0565b9050600081511161242c5760405180602001604052806000815250612457565b806124368461269d565b6040516020016124479291906135f5565b6040516020818303038152906040525b915050919050565b60007f01ffc9a7000000000000000000000000000000000000000000000000000000007bffffffffffffffffffffffffffffffffffffffffffffffffffffffff1916827bffffffffffffffffffffffffffffffffffffffffffffffffffffffff1916149050919050565b60008073ffffffffffffffffffffffffffffffffffffffff166124eb83611cd0565b73ffffffffffffffffffffffffffffffffffffffff1614159050919050565b50505050565b50505050565b60006125378473ffffffffffffffffffffffffffffffffffffffff1661276b565b15612690578373ffffffffffffffffffffffffffffffffffffffff1663150b7a02612560611881565b8786866040518563ffffffff1660e01b81526004016125829493929190613d29565b6020604051808303816000875af19250505080156125be57506040513d601f19601f820116820180604052508101906125bb9190613d8a565b60015b612640573d80600081146125ee576040519150601f19603f3d011682016040523d82523d6000602084013e6125f3565b606091505b506000815103612638576040517f08c379a000000000000000000000000000000000000000000000000000000000815260040161262f90613c48565b60405180910390fd5b805181602001fd5b63150b7a0260e01b7bffffffffffffffffffffffffffffffffffffffffffffffffffffffff1916817bffffffffffffffffffffffffffffffffffffffffffffffffffffffff191614915050612695565b600190505b949350505050565b6060600060016126ac8461278e565b01905060008167ffffffffffffffff8111156126cb576126ca612e16565b5b6040519080825280601f01601f1916602001820160405280156126fd5781602001600182028036833780820191505090505b509050600082602001820190505b600115612760578080600190039150507f3031323334353637383961626364656600000000000000000000000000000000600a86061a8153600a858161275457612753613db7565b5b0494506000850361270b575b819350505050919050565b6000808273ffffffffffffffffffffffffffffffffffffffff163b119050919050565b600080600090507a184f03e93ff9f4daa797ed6e38ed64bf6a1f01000000000000000083106127ec577a184f03e93ff9f4daa797ed6e38ed64bf6a1f01000000000000000083816127e2576127e1613db7565b5b0492506040810190505b6d04ee2d6d415b85acef81000000008310612829576d04ee2d6d415b85acef8100000000838161281f5761281e613db7565b5b0492506020810190505b662386f26fc10000831061285857662386f26fc10000838161284e5761284d613db7565b5b0492506010810190505b6305f5e1008310612881576305f5e100838161287757612876613db7565b5b0492506008810190505b61271083106128a657612710838161289c5761289b613db7565b5b0492506004810190505b606483106128c957606483816128bf576128be613db7565b5b0492506002810190505b600a83106128d8576001810190505b80915050919050565b6040518060a0016040528060008152602001600073ffffffffffffffffffffffffffffffffffffffff168152602001600073ffffffffffffffffffffffffffffffffffffffff168152602001600081526020016000151581525090565b6000604051905090565b600080fd5b600080fd5b60007fffffffff0000000000000000000000000000000000000000000000000000000082169050919050565b61298781612952565b811461299257600080fd5b50565b6000813590506129a48161297e565b92915050565b6000602082840312156129c0576129bf612948565b5b60006129ce84828501612995565b91505092915050565b60008115159050919050565b6129ec816129d7565b82525050565b6000602082019050612a0760008301846129e3565b92915050565b600081519050919050565b600082825260208201905092915050565b60005b83811015612a47578082015181840152602081019050612a2c565b60008484015250505050565b6000601f19601f8301169050919050565b6000612a6f82612a0d565b612a798185612a18565b9350612a89818560208601612a29565b612a9281612a53565b840191505092915050565b60006020820190508181036000830152612ab78184612a64565b905092915050565b6000819050919050565b612ad281612abf565b8114612add57600080fd5b50565b600081359050612aef81612ac9565b92915050565b600060208284031215612b0b57612b0a612948565b5b6000612b1984828501612ae0565b91505092915050565b600073ffffffffffffffffffffffffffffffffffffffff82169050919050565b6000612b4d82612b22565b9050919050565b612b5d81612b42565b82525050565b6000602082019050612b786000830184612b54565b92915050565b612b8781612b42565b8114612b9257600080fd5b50565b600081359050612ba481612b7e565b92915050565b60008060408385031215612bc157612bc0612948565b5b6000612bcf85828601612b95565b9250506020612be085828601612ae0565b9150509250929050565b600081519050919050565b600082825260208201905092915050565b6000819050602082019050919050565b612c1f81612abf565b82525050565b6000612c3082612b22565b9050919050565b612c4081612c25565b82525050565b612c4f816129d7565b82525050565b60a082016000820151612c6b6000850182612c16565b506020820151612c7e6020850182612c37565b506040820151612c916040850182612c37565b506060820151612ca46060850182612c16565b506080820151612cb76080850182612c46565b50505050565b6000612cc98383612c55565b60a08301905092915050565b6000602082019050919050565b6000612ced82612bea565b612cf78185612bf5565b9350612d0283612c06565b8060005b83811015612d33578151612d1a8882612cbd565b9750612d2583612cd5565b925050600181019050612d06565b5085935050505092915050565b60006020820190508181036000830152612d5a8184612ce2565b905092915050565b612d6b81612abf565b82525050565b6000602082019050612d866000830184612d62565b92915050565b600080600060608486031215612da557612da4612948565b5b6000612db386828701612b95565b9350506020612dc486828701612b95565b9250506040612dd586828701612ae0565b9150509250925092565b600060208284031215612df557612df4612948565b5b6000612e0384828501612b95565b91505092915050565b600080fd5b600080fd5b7f4e487b7100000000000000000000000000000000000000000000000000000000600052604160045260246000fd5b612e4e82612a53565b810181811067ffffffffffffffff82111715612e6d57612e6c612e16565b5b80604052505050565b6000612e8061293e565b9050612e8c8282612e45565b919050565b600067ffffffffffffffff821115612eac57612eab612e16565b5b612eb582612a53565b9050602081019050919050565b82818337600083830152505050565b6000612ee4612edf84612e91565b612e76565b905082815260208101848484011115612f0057612eff612e11565b5b612f0b848285612ec2565b509392505050565b600082601f830112612f2857612f27612e0c565b5b8135612f38848260208601612ed1565b91505092915050565b60008060408385031215612f5857612f57612948565b5b600083013567ffffffffffffffff811115612f7657612f7561294d565b5b612f8285828601612f13565b9250506020612f9385828601612ae0565b9150509250929050565b612fa681612c25565b82525050565b6000602082019050612fc16000830184612f9d565b92915050565b612fd0816129d7565b8114612fdb57600080fd5b50565b600081359050612fed81612fc7565b92915050565b6000806040838503121561300a57613009612948565b5b600061301885828601612b95565b925050602061302985828601612fde565b9150509250929050565b600067ffffffffffffffff82111561304e5761304d612e16565b5b61305782612a53565b9050602081019050919050565b600061307761307284613033565b612e76565b90508281526020810184848401111561309357613092612e11565b5b61309e848285612ec2565b509392505050565b600082601f8301126130bb576130ba612e0c565b5b81356130cb848260208601613064565b91505092915050565b600080600080608085870312156130ee576130ed612948565b5b60006130fc87828801612b95565b945050602061310d87828801612b95565b935050604061311e87828801612ae0565b925050606085013567ffffffffffffffff81111561313f5761313e61294d565b5b61314b878288016130a6565b91505092959194509250565b6000806040838503121561316e5761316d612948565b5b600061317c85828601612b95565b925050602061318d85828601612b95565b9150509250929050565b7f4e487b7100000000000000000000000000000000000000000000000000000000600052602260045260246000fd5b600060028204905060018216806131de57607f821691505b6020821081036131f1576131f0613197565b5b50919050565b7f4552433732313a20617070726f76616c20746f2063757272656e74206f776e6560008201527f7200000000000000000000000000000000000000000000000000000000000000602082015250565b6000613253602183612a18565b915061325e826131f7565b604082019050919050565b6000602082019050818103600083015261328281613246565b9050919050565b7f4552433732313a20617070726f76652063616c6c6572206973206e6f7420746f60008201527f6b656e206f776e6572206f7220617070726f76656420666f7220616c6c000000602082015250565b60006132e5603d83612a18565b91506132f082613289565b604082019050919050565b60006020820190508181036000830152613314816132d8565b9050919050565b7f4e487b7100000000000000000000000000000000000000000000000000000000600052601160045260246000fd5b600061335582612abf565b915061336083612abf565b92508282039050818111156133785761337761331b565b5b92915050565b600061338982612abf565b915061339483612abf565b92508282019050808211156133ac576133ab61331b565b5b92915050565b7f4e487b7100000000000000000000000000000000000000000000000000000000600052603260045260246000fd5b7f4552433732313a2063616c6c6572206973206e6f7420746f6b656e206f776e6560008201527f72206f7220617070726f76656400000000000000000000000000000000000000602082015250565b600061343d602d83612a18565b9150613448826133e1565b604082019050919050565b6000602082019050818103600083015261346c81613430565b9050919050565b7f4552433732313a20696e76616c696420746f6b656e2049440000000000000000600082015250565b60006134a9601883612a18565b91506134b482613473565b602082019050919050565b600060208201905081810360008301526134d88161349c565b9050919050565b7f4552433732313a2061646472657373207a65726f206973206e6f74206120766160008201527f6c6964206f776e65720000000000000000000000000000000000000000000000602082015250565b600061353b602983612a18565b9150613546826134df565b604082019050919050565b6000602082019050818103600083015261356a8161352e565b9050919050565b600061357c82612abf565b91507fffffffffffffffffffffffffffffffffffffffffffffffffffffffffffffffff82036135ae576135ad61331b565b5b600182019050919050565b600081905092915050565b60006135cf82612a0d565b6135d981856135b9565b93506135e9818560208601612a29565b80840191505092915050565b600061360182856135c4565b915061360d82846135c4565b91508190509392505050565b7f4552433732313a207472616e736665722066726f6d20696e636f72726563742060008201527f6f776e6572000000000000000000000000000000000000000000000000000000602082015250565b6000613675602583612a18565b915061368082613619565b604082019050919050565b600060208201905081810360008301526136a481613668565b9050919050565b7f4552433732313a207472616e7366657220746f20746865207a65726f2061646460008201527f7265737300000000000000000000000000000000000000000000000000000000602082015250565b6000613707602483612a18565b9150613712826136ab565b604082019050919050565b60006020820190508181036000830152613736816136fa565b9050919050565b7f4552433732313a206d696e7420746f20746865207a65726f2061646472657373600082015250565b6000613773602083612a18565b915061377e8261373d565b602082019050919050565b600060208201905081810360008301526137a281613766565b9050919050565b7f4552433732313a20746f6b656e20616c7265616479206d696e74656400000000600082015250565b60006137df601c83612a18565b91506137ea826137a9565b602082019050919050565b6000602082019050818103600083015261380e816137d2565b9050919050565b7f45524337323155524953746f726167653a2055524920736574206f66206e6f6e60008201527f6578697374656e7420746f6b656e000000000000000000000000000000000000602082015250565b6000613871602e83612a18565b915061387c82613815565b604082019050919050565b600060208201905081810360008301526138a081613864565b9050919050565b60008190508160005260206000209050919050565b60006020601f8301049050919050565b600082821b905092915050565b6000600883026139097fffffffffffffffffffffffffffffffffffffffffffffffffffffffffffffffff826138cc565b61391386836138cc565b95508019841693508086168417925050509392505050565b6000819050919050565b600061395061394b61394684612abf565b61392b565b612abf565b9050919050565b6000819050919050565b61396a83613935565b61397e61397682613957565b8484546138d9565b825550505050565b600090565b613993613986565b61399e818484613961565b505050565b5b818110156139c2576139b760008261398b565b6001810190506139a4565b5050565b601f821115613a07576139d8816138a7565b6139e1846138bc565b810160208510156139f0578190505b613a046139fc856138bc565b8301826139a3565b50505b505050565b600082821c905092915050565b6000613a2a60001984600802613a0c565b1980831691505092915050565b6000613a438383613a19565b9150826002028217905092915050565b613a5c82612a0d565b67ffffffffffffffff811115613a7557613a74612e16565b5b613a7f82546131c6565b613a8a8282856139c6565b600060209050601f831160018114613abd5760008415613aab578287015190505b613ab58582613a37565b865550613b1d565b601f198416613acb866138a7565b60005b82811015613af357848901518255600182019150602085019450602081019050613ace565b86831015613b105784890151613b0c601f891682613a19565b8355505b6001600288020188555050505b505050505050565b6000608082019050613b3a6000830187612b54565b613b476020830186612b54565b613b546040830185612d62565b613b6160608301846129e3565b95945050505050565b7f4552433732313a20617070726f766520746f2063616c6c657200000000000000600082015250565b6000613ba0601983612a18565b9150613bab82613b6a565b602082019050919050565b60006020820190508181036000830152613bcf81613b93565b9050919050565b7f4552433732313a207472616e7366657220746f206e6f6e20455243373231526560008201527f63656976657220696d706c656d656e7465720000000000000000000000000000602082015250565b6000613c32603283612a18565b9150613c3d82613bd6565b604082019050919050565b60006020820190508181036000830152613c6181613c25565b9050919050565b7f5265656e7472616e637947756172643a207265656e7472616e742063616c6c00600082015250565b6000613c9e601f83612a18565b9150613ca982613c68565b602082019050919050565b60006020820190508181036000830152613ccd81613c91565b9050919050565b600081519050919050565b600082825260208201905092915050565b6000613cfb82613cd4565b613d058185613cdf565b9350613d15818560208601612a29565b613d1e81612a53565b840191505092915050565b6000608082019050613d3e6000830187612b54565b613d4b6020830186612b54565b613d586040830185612d62565b8181036060830152613d6a8184613cf0565b905095945050505050565b600081519050613d848161297e565b92915050565b600060208284031215613da057613d9f612948565b5b6000613dae84828501613d75565b91505092915050565b7f4e487b7100000000000000000000000000000000000000000000000000000000600052601260045260246000fdfea264697066735822122053ee28069d2eb66449c384e23834f35c5b6b56325fbf42545587a78c1755ac8264736f6c63430008180033",
  "linkReferences": {},
  "deployedLinkReferences": {}
}